:10FC000002C0E0C01BC111248FEF90E19EBF8DBFE9
:10FC100084B790E89093610010926100882361F0AE
:10FC2000982F9A70923041F081FF02C097EF94BFF5
:10FC3000282E80E0EAD0E4C185E08093810082E054
:10FC40008093C00098E19093C1008093C40086E047
:10FC50008093C2008EE0D9D0259A84E028E43AEF60
:10FC600091E0309385002093840096BBB09BFECF3B
:10FC70001D9AA8954091C00047FD02C0815089F7A8
:10FC8000B8D0813479F4B5D0C82FC5D0C23811F4BA
:10FC900080E004C088E0C13809F083E0A3D080E1AF
:10FCA000A1D0EECF823419F484E1BDD0F8CF8534F1
:10FCB00011F485E0FACF853541F49BD0E82E99D038
:10FCC000F82EEE0CFF1CA7D0EACF863519F484E09D
:10FCD000AAD0DECF843609F045C08BD0C82FD0E043
:10FCE000DC2FCC2786D0C82B84D0D82E5E01B394CD
:10FCF00000E011E04801EFEF8E1A9E0A7AD0F80179
:10FD0000808384018A149B04A9F785D0F5E410E070
:10FD100000E0DF1609F150E040E063E0C70152D097
:10FD20008701C12CDD24D394F601419151916F01DB
:10FD300061E0C80147D00E5F1F4F2297A9F750E03E
:10FD400040E065E0C7013ED0AACF6081C8018E0DBA
:10FD50009F1DC2D00F5F1F4FF801F395C017D10749
:10FD6000A1F79DCF843701F544D0C82FD0E0DC2F18
:10FD7000CC273FD0C82B3DD0D82E4DD08701F5E4FD
:10FD8000DF120BC0CE0DDF1DC8019ED02BD00F5F40
:10FD90001F4FC017D107C1F782CFF80185918F019E
:10FDA00021D02197D1F77BCF853731F434D08EE144
:10FDB00019D086E917D071CF813509F084CF88E05A
:10FDC00024D081CFFC010A0167BFE895112407B652
:10FDD00000FCFDCF667029F0452B19F481E187BF47
:10FDE000E89508959091C00095FFFCCF8093C600E0
:10FDF00008958091C00087FFFCCF8091C00084FDF2
:10FE000001C0A8958091C6000895E0E6F0E098E171
:10FE1000908380830895EDDF803219F088E0F5DF6C
:10FE2000FFCF84E1DFCFCF93C82FE3DFC150E9F7E5
:10FE3000CF91F1CFCB01642FA901C4CF8F929F92B4
:10FE4000AF92BF92CF92DF92EF920F931F93CF9317
:10FE5000DF93EB016901912C812C8016910629F426
:10FE6000EE2031F188E0D1DFFFCF50E040E063E0E9
:10FE7000CE01A8DFB12CA12CF501EC0DFD1D4591A3
:10FE8000549161E0C5018C0F9D1F9CDF82E0A80E9C
:10FE9000B11CA11481E0B80679F750E040E065E0BC
:10FEA000CE0190DF8FEF881A980AD395D394D5CFDF
:10FEB000DF91CF911F910F91EF90DF90CF90BF9086
:10FEC000AF909F908F900895F999FECF92BD81BD1C
:10FED000F89A992780B50895262FF999FECF92BDFB
:10FEE00081BD20BD0FB6F894FA9AF99A0FBE01961B
:02FEF000089573
:02FFFE000008F9
:040000030000FC00FD
:00000001FF
