:107C000001C0ABC0112484B7882361F0982F9A700B
:107C1000923041F081FF02C097EF94BF282E80E0A0
:107C2000BFD0EEC185E08093810082E08093C000E8
:107C300088E18093C10081E88093C40086E080934E
:107C4000C2008EE0ADD0259A84E02CE33BEF91E0BA
:107C5000309385002093840096BBB09BFECF1D9A85
:107C6000A8954091C00047FD02C0815089F78CD093
:107C70008134A1F489D0182F99D0123829F1113804
:107C800051F488E009C0853709F05FC08FD08EE1DC
:107C900074D085E972D083E070D05CC0823411F476
:107CA00084E103C0853419F485E088D053C085355C
:107CB00039F46AD0C82F68D0D82FCC0FDD1F49C047
:107CC000863521F484E07AD080E0E6CF843661F511
:107CD0005BD05AD0D82E58D0F82E00E011E054D006
:107CE000F80181938F01DE12FACF60D0F5E4FF1224
:107CF00001C0FFCF40E050E063E0CE012ED07E0116
:107D000000E011E0F801419151918F0161E0C7015C
:107D100024D0F2E0EF0EF11CD012F4CF40E050E09E
:107D200065E0CE011AD016C0843709F0ACCF2CD054
:107D30002BD0F82E29D03AD08E01F80185918F01F1
:107D40001CD0FA94F110F9CF05C0813511F488E008
:107D500027D02CD080E111D08ACFFC010A0167BF67
:107D6000E895112407B600FCFDCF667029F0452B7D
:107D700019F481E187BFE89508959091C00095FFBF
:107D8000FCCF8093C60008958091C00087FFFCCF90
:107D90008091C00084FD01C0A8958091C60008951F
:107DA000E0E6F0E098E1908380830895EDDF803293
:107DB00019F088E0F5DFFFCF84E1DFCFCF93C82F44
:0A7DC000E3DFC150E9F7CF91F1CFE6
:027FFE00000879
:0400000300007C007D
:00000001FF
