:103C000001C0AEC011248FE594E09EBF8DBF84B784
:103C1000882361F0982F9A70923041F081FF02C0A2
:103C200097EF94BF282E80E0B6D0EAC185E08EBD24
:103C300082E08BB988E18AB986E880BD87E289B9DC
:103C40008EE0A9D0B89A84E02BE93BEF44E051E044
:103C50003DBD2CBD48BF08B602FEFDCF98B39527E9
:103C600098BBA8955F9902C0815091F78DD081349F
:103C7000A1F48AD0182F93D0123829F1113851F4B9
:103C800088E009C0853709F063C089D08EE178D01B
:103C900084E976D083E074D060C0823411F484E18A
:103CA00003C0853419F485E082D057C0853539F4D6
:103CB0006BD0C82F69D0D82FCC0FDD1F4DC08635F3
:103CC00021F484E074D080E0E6CF843681F55CD0C6
:103CD0005BD0182F59D0D82E012F90E6E92EF12C69
:103CE00053D0F70181937F010150D1F758D0F5E40B
:103CF000DF1201C0FFCF40E050E063E0CE0130D0E2
:103D00007E0180E6C82ED12CF601419151916F01C0
:103D100061E0C70125D01250F2E0EF0EF11C111145
:103D2000F3CF40E050E065E0CE011AD016C08437F2
:103D300009F0A8CF29D028D0F82E26D030D08E0177
:103D4000F80185918F011CD0FA94F110F9CF05C0CC
:103D5000813511F488E01FD022D080E111D086CFC8
:103D6000FC010A0167BFE895112407B600FCFDCFEE
:103D7000667029F0452B19F481E187BFE895089515
:103D80005D9BFECF8CB908955F9BFECF5C9901C00F
:103D9000A8958CB1089598E191BD81BD0895F4DF97
:103DA000803219F088E0F7DFFFCF84E1E9CFCF93CD
:0C3DB000C82FEADFC150E9F7CF91F1CF36
:023FFE000008B9
:0400000300003C00BD
:00000001FF
