:103E000001C0BAC011248FEF94E09EBF8DBF84B76C
:103E100090E89093610010926100882361F0982FE0
:103E20009A70923041F081FF02C097EF94BF282E24
:103E300080E0C5D0E5C085E08093810082E080937A
:103E4000C00098E19093C1008093C40086E0809305
:103E5000C2008EE0B4D0259A84E02DE53DEF91E0DC
:103E6000309385002093840096BBB09BFECF1D9AB3
:103E7000A8954091C00047FD02C0815089F793D0BA
:103E8000813479F490D0182FA0D0123811F480E04A
:103E900004C088E0113809F083E07ED080E17CD056
:103EA000EECF823419F484E198D0F8CF853411F440
:103EB00085E0FACF853541F476D0C82F74D0D82F5D
:103EC000CC0FDD1F82D0EACF863519F484E085D08F
:103ED000DECF843691F567D066D0F82E64D0D82E28
:103EE00000E011E058018FEFA81AB80A5CD0F80181
:103EF00080838501FA10F6CF68D0F5E4DF1201C0A7
:103F0000FFCF50E040E063E0CE0136D08E01E0E02C
:103F1000F1E06F0182E0C80ED11C4081518161E067
:103F2000C8012AD00E5F1F4FF601FC10F2CF50E0FF
:103F300040E065E0CE0120D0B1CF843771F433D0BA
:103F400032D0F82E30D041D08E01F80185918F010A
:103F500023D0FA94F110F9CFA1CF853739F435D0B9
:103F60008EE11AD084E918D087E097CF813509F027
:103F7000A9CF88E024D0A6CFFC010A0167BFE8954D
:103F8000112407B600FCFDCF667029F0452B19F40B
:103F900081E187BFE89508959091C00095FFFCCF1F
:103FA0008093C60008958091C00087FFFCCF809168
:103FB000C00084FD01C0A8958091C6000895E0E688
:103FC000F0E098E1908380830895EDDF803219F06E
:103FD00088E0F5DFFFCF84E1DFCFCF93C82FE3DFA9
:083FE000C150E9F7CF91F1CFC8
:023FFE000008B9
:0400000300003E00BB
:00000001FF
