:107E000001C0BAC011248FEF98E09EBF8DBF84B728
:107E100090E89093610010926100882361F0982FA0
:107E20009A70923041F081FF02C097EF94BF282EE4
:107E300080E0C5D0E5C085E08093810082E080933A
:107E4000C00088E18093C1008FE28093C40086E087
:107E50008093C2008EE0B3D0259A84E02EE33EEFFB
:107E600091E0309385002093840096BBB09BFECFB9
:107E70001D9AA8954091C00047FD02C0815089F726
:107E800092D0813479F48FD0182F9FD0123811F40A
:107E900080E004C088E0113809F083E07DD080E103
:107EA0007BD0EECF823419F484E197D0F8CF8534BB
:107EB00011F485E0FACF853541F475D0C82F73D021
:107EC000D82FCC0FDD1F81D0EACF863519F484E09E
:107ED00084D0DECF843691F566D065D0F82E63D09D
:107EE000D82E00E011E058018FEFA81AB80A5BD035
:107EF000F80180838501FA10F6CF67D0F5E4DF1230
:107F000001C0FFCF50E040E063E0CE0135D08E01EC
:107F1000E0E0F1E06F0182E0C80ED11C40815181A8
:107F200061E0C80129D00E5F1F4FF601FC10F2CFAF
:107F300050E040E065E0CE011FD0B1CF843771F44E
:107F400032D031D0F82E2FD040D08E01F80185915B
:107F50008F0122D0FA94F110F9CFA1CF853731F4F7
:107F600034D08EE119D085E917D097CF813509F04B
:107F7000AACF88E024D0A7CFFC010A0167BFE8950B
:107F8000112407B600FCFDCF667029F0452B19F4CB
:107F900081E187BFE89508959091C00095FFFCCFDF
:107FA0008093C60008958091C00087FFFCCF809128
:107FB000C00084FD01C0A8958091C6000895E0E648
:107FC000F0E098E1908380830895EDDF803219F02E
:107FD00088E0F5DFFFCF84E1DFCFCF93C82FE3DF69
:087FE000C150E9F7CF91F1CF88
:027FFE00000879
:0400000300007E007B
:00000001FF
