:107C000001C0EBC0112484B7882369F0982F9A70C3
:107C1000923049F081FF02C097EF94BF282E80E098
:107C2000FFD00C94000085E08093810082E0809377
:107C3000C80088E18093C90087E68093CC0086E085
:107C40008093CA008EE0ECD0209A84E020E33CEFE1
:107C500091E0309385002093840096BBB09BFECFCB
:107C6000189AA8954091C80047FD02C0815089F735
:107C7000CBD0813461F4C8D0C82FD8D0C23879F1C4
:107C8000C13811F488E001C083E0B7D0A3C08234CA
:107C900011F484E103C0853419F485E0CFD09AC093
:107CA000853579F4B1D0082FAFD0182F87FF03C0E6
:107CB0008BB7816002C08BB78E7F8BBF000F111F07
:107CC00088C0863581F4A0D08D3459F49DD0CBB7CF
:107CD0009BD0C170880FC82BCBBF81E0AFD080E0B4
:107CE000D4CF83E0FBCF843609F045C08DD0C82FB8
:107CF000D0E0DC2FCC2788D0C82B86D0B82E7E01D0
:107D0000C12CDD24D39480D0F60181936F01F1E082
:107D1000EF1AF108C1F78AD085E4B81210C06E01DD
:107D2000D3947801C0E0D1E0CC16DD0609F452C04E
:107D30006991C70192D0FFEFEF1AFF0AF5CF40E03B
:107D400050E063E0C80149D07801C12CDD24D39410
:107D5000F601419151916F0161E0C7013ED0229738
:107D6000F2E0EF0EF11C209799F740E050E065E05B
:107D7000C80133D02FC08437F9F446D0C82FD0E0E3
:107D8000DC2FCC2741D0C82B3FD0D82E4FD0780144
:107D900085E4D8120AC0C70158D02FD02197EFEF41
:107DA000EE1AFE0A2097B9F715C0F70187917F01F7
:107DB00024D02197D1F70EC0853739F437D08EE122
:107DC0001CD085E91AD081E860CF813511F488E0B4
:107DD00027D02CD080E111D04BCFFC010A0167BF26
:107DE000E895112407B600FCFDCF667029F0452BFD
:107DF00019F481E187BFE89508959091C80095FF37
:107E0000FCCF8093CE0008958091C80087FFFCCFFF
:107E10008091C80084FD01C0A8958091CE0008958E
:107E2000E0E6F0E098E1908380830895EDDF803212
:107E300019F088E0F5DFFFCF84E1DFCFCF93C82FC3
:107E4000E3DFC150E9F7CF91F1CFF999FECF92BDB1
:107E500081BDF89A992780B50895262FF999FECF0C
:107E600092BD81BD20BD0FB6F894FA9AF99A0FBE63
:047E700001960895DA
:027FFE00000879
:0400000300007C007D
:00000001FF
