:103C000001C094C011248FEF94E09EBF8DBF84B794
:103C1000882361F0982F9A70923041F081FF02C0A2
:103C200097EF94BF282E80E09CD0EAC182E08BB948
:103C300088E18AB983E089B986E880BD8EE091D0B9
:103C400089D0813461F486D0182F8FD01238E9F0F2
:103C5000113811F488E001C083E078D064C0823468
:103C600011F484E103C0853419F485E086D05BC08B
:103C7000853539F46FD0C82F6DD0D82FCC0FDD1F0C
:103C800051C0863521F484E078D080E0E6CF8436D8
:103C900061F560D05FD0D82E5DD0F82E00E011E045
:103CA00059D0F80181938F01DE12FACF5ED0F5E48E
:103CB000FF1201C0FFCF40E050E063E0CE0136D0FC
:103CC0007E0100E011E0F801419151918F0161E026
:103CD000C7012CD0F2E0EF0EF11CD012F4CF40E07F
:103CE00050E065E0CE0122D01EC0843771F432D09E
:103CF00031D0F82E2FD039D08E01F80185918F0167
:103D000025D0FA94F110F9CF0EC0853739F42DD0B3
:103D10008EE11CD084E91AD084E09FCF813511F464
:103D200088E01FD022D080E111D08ACFFC010A01A7
:103D300067BFE895112407B600FCFDCF667029F037
:103D4000452B19F481E187BFE89508955D9BFECF6F
:103D50008CB908955F9BFECF5C9901C0A8958CB18A
:103D6000089598E191BD81BD0895F4DF803219F086
:103D700088E0F7DFFFCF84E1E9CFCF93C82FEADFF8
:083D8000C150E9F7CF91F1CF2A
:023FFE000008B9
:0400000300003C00BD
:00000001FF
